{
  "_format": "hh-sol-artifact-1",
  "contractName": "InsightsPayment",
  "sourceName": "contracts/InsightsPayment.sol",
  "abi": [
    {
      "inputs": [
        {
          "internalType": "address",
          "name": "_cUSD",
          "type": "address"
        },
        {
          "internalType": "address",
          "name": "_insightToken",
          "type": "address"
        }
      ],
      "stateMutability": "nonpayable",
      "type": "constructor"
    },
    {
      "inputs": [
        {
          "internalType": "address",
          "name": "owner",
          "type": "address"
        }
      ],
      "name": "OwnableInvalidOwner",
      "type": "error"
    },
    {
      "inputs": [
        {
          "internalType": "address",
          "name": "account",
          "type": "address"
        }
      ],
      "name": "OwnableUnauthorizedAccount",
      "type": "error"
    },
    {
      "inputs": [],
      "name": "ReentrancyGuardReentrantCall",
      "type": "error"
    },
    {
      "inputs": [
        {
          "internalType": "address",
          "name": "token",
          "type": "address"
        }
      ],
      "name": "SafeERC20FailedOperation",
      "type": "error"
    },
    {
      "anonymous": false,
      "inputs": [
        {
          "indexed": true,
          "internalType": "address",
          "name": "user",
          "type": "address"
        },
        {
          "indexed": false,
          "internalType": "string",
          "name": "ipfsHash",
          "type": "string"
        }
      ],
      "name": "Checkin",
      "type": "event"
    },
    {
      "anonymous": false,
      "inputs": [
        {
          "indexed": true,
          "internalType": "address",
          "name": "user",
          "type": "address"
        },
        {
          "indexed": false,
          "internalType": "uint256",
          "name": "amount",
          "type": "uint256"
        }
      ],
      "name": "RewardDistributed",
      "type": "event"
    },
    {
      "anonymous": false,
      "inputs": [
        {
          "indexed": true,
          "internalType": "address",
          "name": "previousOwner",
          "type": "address"
        },
        {
          "indexed": true,
          "internalType": "address",
          "name": "newOwner",
          "type": "address"
        }
      ],
      "name": "OwnershipTransferred",
      "type": "event"
    },
    {
      "anonymous": false,
      "inputs": [
        {
          "indexed": true,
          "internalType": "address",
          "name": "user",
          "type": "address"
        },
        {
          "indexed": false,
          "internalType": "uint256",
          "name": "amount",
          "type": "uint256"
        }
      ],
      "name": "RefundIssued",
      "type": "event"
    },
    {
      "anonymous": false,
      "inputs": [
        {
          "indexed": true,
          "internalType": "address",
          "name": "user",
          "type": "address"
        },
        {
          "indexed": false,
          "internalType": "uint256",
          "name": "until",
          "type": "uint256"
        }
      ],
      "name": "Subscribed",
      "type": "event"
    },
    {
      "anonymous": false,
      "inputs": [
        {
          "indexed": true,
          "internalType": "address",
          "name": "to",
          "type": "address"
        },
        {
          "indexed": false,
          "internalType": "uint256",
          "name": "celoAmount",
          "type": "uint256"
        },
        {
          "indexed": false,
          "internalType": "uint256",
          "name": "cUSDAmount",
          "type": "uint256"
        }
      ],
      "name": "Withdrawn",
      "type": "event"
    },
    {
      "stateMutability": "payable",
      "type": "fallback"
    },
    {
      "inputs": [],
      "name": "CHECKIN_COOLDOWN",
      "outputs": [
        {
          "internalType": "uint256",
          "name": "",
          "type": "uint256"
        }
      ],
      "stateMutability": "view",
      "type": "function"
    },
    {
      "inputs": [],
      "name": "CHECKIN_FEE",
      "outputs": [
        {
          "internalType": "uint256",
          "name": "",
          "type": "uint256"
        }
      ],
      "stateMutability": "view",
      "type": "function"
    },
    {
      "inputs": [],
      "name": "LIFETIME_ACCESS_FEE",
      "outputs": [
        {
          "internalType": "uint256",
          "name": "",
          "type": "uint256"
        }
      ],
      "stateMutability": "view",
      "type": "function"
    },
    {
      "inputs": [],
      "name": "MONTHLY_SUBSCRIPTION",
      "outputs": [
        {
          "internalType": "uint256",
          "name": "",
          "type": "uint256"
        }
      ],
      "stateMutability": "view",
      "type": "function"
    },
    {
      "inputs": [],
      "name": "SUBSCRIPTION_DURATION",
      "outputs": [
        {
          "internalType": "uint256",
          "name": "",
          "type": "uint256"
        }
      ],
      "stateMutability": "view",
      "type": "function"
    },
    {
      "inputs": [],
      "name": "REWARD_CHECKIN_COUNT",
      "outputs": [
        {
          "internalType": "uint256",
          "name": "",
          "type": "uint256"
        }
      ],
      "stateMutability": "view",
      "type": "function"
    },
    {
      "inputs": [],
      "name": "REWARD_AMOUNT",
      "outputs": [
        {
          "internalType": "uint256",
          "name": "",
          "type": "uint256"
        }
      ],
      "stateMutability": "view",
      "type": "function"
    },
    {
      "inputs": [],
      "name": "buyLifetimeAccess",
      "outputs": [],
      "stateMutability": "nonpayable",
      "type": "function"
    },
    {
      "inputs": [],
      "name": "cUSD",
      "outputs": [
        {
          "internalType": "contract IERC20",
          "name": "",
          "type": "address"
        }
      ],
      "stateMutability": "view",
      "type": "function"
    },
    {
      "inputs": [],
      "name": "insightToken",
      "outputs": [
        {
          "internalType": "contract IERC20",
          "name": "",
          "type": "address"
        }
      ],
      "stateMutability": "view",
      "type": "function"
    },
    {
      "inputs": [
        {
          "internalType": "address",
          "name": "user",
          "type": "address"
        }
      ],
      "name": "getSubscriptionExpiry",
      "outputs": [
        {
          "internalType": "uint256",
          "name": "",
          "type": "uint256"
        }
      ],
      "stateMutability": "view",
      "type": "function"
    },
    {
      "inputs": [
        {
          "internalType": "address",
          "name": "user",
          "type": "address"
        }
      ],
      "name": "hasLifetimeAccess",
      "outputs": [
        {
          "internalType": "bool",
          "name": "",
          "type": "bool"
        }
      ],
      "stateMutability": "view",
      "type": "function"
    },
    {
      "inputs": [
        {
          "internalType": "address",
          "name": "user",
          "type": "address"
        }
      ],
      "name": "getCheckinCount",
      "outputs": [
        {
          "internalType": "uint256",
          "name": "",
          "type": "uint256"
        }
      ],
      "stateMutability": "view",
      "type": "function"
    },
    {
      "inputs": [
        {
          "internalType": "address",
          "name": "user",
          "type": "address"
        }
      ],
      "name": "getCheckinsUntilReward",
      "outputs": [
        {
          "internalType": "uint256",
          "name": "",
          "type": "uint256"
        }
      ],
      "stateMutability": "view",
      "type": "function"
    },
    {
      "inputs": [
        {
          "internalType": "address",
          "name": "user",
          "type": "address"
        }
      ],
      "name": "isInCooldown",
      "outputs": [
        {
          "internalType": "bool",
          "name": "",
          "type": "bool"
        }
      ],
      "stateMutability": "view",
      "type": "function"
    },
    {
      "inputs": [
        {
          "internalType": "address",
          "name": "user",
          "type": "address"
        }
      ],
      "name": "isSubscribed",
      "outputs": [
        {
          "internalType": "bool",
          "name": "",
          "type": "bool"
        }
      ],
      "stateMutability": "view",
      "type": "function"
    },
    {
      "inputs": [
        {
          "internalType": "address",
          "name": "",
          "type": "address"
        }
      ],
      "name": "checkinCount",
      "outputs": [
        {
          "internalType": "uint256",
          "name": "",
          "type": "uint256"
        }
      ],
      "stateMutability": "view",
      "type": "function"
    },
    {
      "inputs": [
        {
          "internalType": "address",
          "name": "",
          "type": "address"
        }
      ],
      "name": "lastCheckin",
      "outputs": [
        {
          "internalType": "uint256",
          "name": "",
          "type": "uint256"
        }
      ],
      "stateMutability": "view",
      "type": "function"
    },
    {
      "inputs": [
        {
          "internalType": "address",
          "name": "",
          "type": "address"
        }
      ],
      "name": "lifetimeAccess",
      "outputs": [
        {
          "internalType": "bool",
          "name": "",
          "type": "bool"
        }
      ],
      "stateMutability": "view",
      "type": "function"
    },
    {
      "inputs": [],
      "name": "owner",
      "outputs": [
        {
          "internalType": "address",
          "name": "",
          "type": "address"
        }
      ],
      "stateMutability": "view",
      "type": "function"
    },
    {
      "inputs": [],
      "name": "renounceOwnership",
      "outputs": [],
      "stateMutability": "nonpayable",
      "type": "function"
    },
    {
      "inputs": [
        {
          "internalType": "string",
          "name": "ipfsHash",
          "type": "string"
        }
      ],
      "name": "submitCheckin",
      "outputs": [],
      "stateMutability": "payable",
      "type": "function"
    },
    {
      "inputs": [],
      "name": "subscribe",
      "outputs": [],
      "stateMutability": "nonpayable",
      "type": "function"
    },
    {
      "inputs": [
        {
          "internalType": "address",
          "name": "",
          "type": "address"
        }
      ],
      "name": "subscriptionExpiry",
      "outputs": [
        {
          "internalType": "uint256",
          "name": "",
          "type": "uint256"
        }
      ],
      "stateMutability": "view",
      "type": "function"
    },
    {
      "inputs": [
        {
          "internalType": "address",
          "name": "newOwner",
          "type": "address"
        }
      ],
      "name": "transferOwnership",
      "outputs": [],
      "stateMutability": "nonpayable",
      "type": "function"
    },
    {
      "inputs": [
        {
          "internalType": "address payable",
          "name": "_to",
          "type": "address"
        }
      ],
      "name": "withdrawTo",
      "outputs": [],
      "stateMutability": "nonpayable",
      "type": "function"
    },
    {
      "stateMutability": "payable",
      "type": "receive"
    }
  ],
  "bytecode": "0x60a060405234801561001057600080fd5b5060405161100738038061100783398101604081905261002f9161010f565b338061005657604051631e4fbdf760e01b8152600060048201526024015b60405180910390fd5b61005f816100bf565b50600180556001600160a01b0381166100ae5760405162461bcd60e51b8152602060048201526011602482015270635553442061646472657373207a65726f60781b604482015260640161004d565b6001600160a01b031660805261013f565b600080546001600160a01b038381166001600160a01b0319831681178455604051919092169283917f8be0079c531659141344cd1fd0a4f28419497f9722a3daafe3b4186f6b6457e09190a35050565b60006020828403121561012157600080fd5b81516001600160a01b038116811461013857600080fd5b9392505050565b608051610e91610176600039600081816101780152818161048f015281816105b90152818161093d0152610ab70152610e916000f3fe6080604052600436106101175760003560e01c80638f449a051161009a578063d671559511610061578063d67155951461033b578063d8376ee214610374578063f235c353146103aa578063f2fde38b146103bf578063f6847c82146103df57005b80638f449a05146102b25780639211ddeb146102c75780639c719105146102e7578063b49649f61461014a578063b92ae87c1461030357005b8063715018a6116100de578063715018a61461020c57806372b0d90c146102215780637de1ce521461024157806385c15a35146102545780638da5cb5b1461029457005b80630267ce5314610120578063154f06d71461014a5780631fccf672146101665780632649c86b146101b257806360a85ef5146101df57005b3661011e57005b005b34801561012c57600080fd5b506101376201518081565b6040519081526020015b60405180910390f35b34801561015657600080fd5b50610137675fc1b9713632000081565b34801561017257600080fd5b5061019a7f000000000000000000000000000000000000000000000000000000000000000081565b6040516001600160a01b039091168152602001610141565b3480156101be57600080fd5b506101376101cd366004610d3b565b60036020526000908152604090205481565b3480156101eb57600080fd5b506101376101fa366004610d3b565b60026020526000908152604090205481565b34801561021857600080fd5b5061011e6103f6565b34801561022d57600080fd5b5061011e61023c366004610d3b565b61040a565b61011e61024f366004610d5f565b610632565b34801561026057600080fd5b5061028461026f366004610d3b565b60046020526000908152604090205460ff1681565b6040519015158152602001610141565b3480156102a057600080fd5b506000546001600160a01b031661019a565b3480156102be57600080fd5b5061011e6108c8565b3480156102d357600080fd5b506102846102e2366004610d3b565b610a12565b3480156102f357600080fd5b5061013767016345785d8a000081565b34801561030f57600080fd5b5061028461031e366004610d3b565b6001600160a01b0316600090815260026020526040902054421090565b34801561034757600080fd5b50610284610356366004610d3b565b6001600160a01b031660009081526004602052604090205460ff1690565b34801561038057600080fd5b5061013761038f366004610d3b565b6001600160a01b031660009081526002602052604090205490565b3480156103b657600080fd5b5061011e610a42565b3480156103cb57600080fd5b5061011e6103da366004610d3b565b610b30565b3480156103eb57600080fd5b5061013762278d0081565b6103fe610b6b565b6104086000610b98565b565b610412610b6b565b61041a610be8565b6001600160a01b0381166104755760405162461bcd60e51b815260206004820152601860248201527f496e76616c69642077697468647261772061646472657373000000000000000060448201526064015b60405180910390fd5b6040516370a0823160e01b815230600482015247906000907f00000000000000000000000000000000000000000000000000000000000000006001600160a01b0316906370a0823190602401602060405180830381865afa1580156104de573d6000803e3d6000fd5b505050506040513d601f19601f820116820180604052508101906105029190610dd1565b905081156105a6576000836001600160a01b03168360405160006040518083038185875af1925050503d8060008114610557576040519150601f19603f3d011682016040523d82523d6000602084013e61055c565b606091505b50509050806105a45760405162461bcd60e51b815260206004820152601460248201527310d15313c81dda5d1a191c985dc819985a5b195960621b604482015260640161046c565b505b80156105e0576105e06001600160a01b037f0000000000000000000000000000000000000000000000000000000000000000168483610c12565b60408051838152602081018390526001600160a01b038516917f92ccf450a286a957af52509bc1c9939d1a6a481783e142e41e2499f0bb66ebc6910160405180910390a2505061062f60018055565b50565b61063a610be8565b33600090815260026020908152604080832054600483528184205460039093529083205442919091109260ff9092169190610679906201518090610e00565b42119050806106ca5760405162461bcd60e51b815260206004820152601c60248201527f596f7520616c726561647920636865636b656420696e20746f64617900000000604482015260640161046c565b82806106d35750815b156107375734156107325760405162461bcd60e51b815260206004820152602360248201527f416c72656164792073756273637269626564202d206e6f2043454c4f206e656560448201526219195960ea1b606482015260840161046c565b61086c565b67016345785d8a000034101561078f5760405162461bcd60e51b815260206004820152601e60248201527f496e73756666696369656e742043454c4f20666f7220636865636b2d696e0000604482015260640161046c565b60006107a367016345785d8a000034610e19565b9050801561086a57604051600090339083908381818185875af1925050503d80600081146107ed576040519150601f19603f3d011682016040523d82523d6000602084013e6107f2565b606091505b50509050806108335760405162461bcd60e51b815260206004820152600d60248201526c1499599d5b990819985a5b1959609a1b604482015260640161046c565b60405182815233907fa171b6942063c6f2800ce40a780edce37baa2b618571b11eedd1e69e626e7d769060200160405180910390a2505b505b3360008181526003602052604090819020429055517f810bee304a1c369797d3e7c7d2c11ddcf8cb3758e6743e7e04e274f026151d8f906108b09088908890610e2c565b60405180910390a25050506108c460018055565b5050565b6108d0610be8565b3360009081526004602052604090205460ff16156109305760405162461bcd60e51b815260206004820152601e60248201527f4c69666574696d652061636365737320616c7265616479206163746976650000604482015260640161046c565b61096d6001600160a01b037f0000000000000000000000000000000000000000000000000000000000000000163330675fc1b97136320000610c76565b336000908152600260205260409020544281106109a65761099162278d0082610e00565b336000908152600260205260409020556109c4565b6109b362278d0042610e00565b336000908152600260205260409020555b336000818152600260209081526040918290205491519182527f4b90d6788928d63c1821907a6a8b95f40d26562d8fe41b105f7489db9966dfcb910160405180910390a25061040860018055565b6001600160a01b038116600090815260036020526040812054610a39906201518090610e00565b42111592915050565b610a4a610be8565b3360009081526004602052604090205460ff1615610aaa5760405162461bcd60e51b815260206004820152601e60248201527f4c69666574696d652061636365737320616c7265616479206163746976650000604482015260640161046c565b610ae76001600160a01b037f0000000000000000000000000000000000000000000000000000000000000000163330675fc1b97136320000610c76565b33600081815260046020526040808220805460ff19166001179055517f1d6de253947dfd515ef38fe01af45fad6c63d28445751b488e892562e9ea21ae9190a261040860018055565b610b38610b6b565b6001600160a01b038116610b6257604051631e4fbdf760e01b81526000600482015260240161046c565b61062f81610b98565b6000546001600160a01b031633146104085760405163118cdaa760e01b815233600482015260240161046c565b600080546001600160a01b038381166001600160a01b0319831681178455604051919092169283917f8be0079c531659141344cd1fd0a4f28419497f9722a3daafe3b4186f6b6457e09190a35050565b600260015403610c0b57604051633ee5aeb560e01b815260040160405180910390fd5b6002600155565b6040516001600160a01b03838116602483015260448201839052610c7191859182169063a9059cbb906064015b604051602081830303815290604052915060e01b6020820180516001600160e01b038381831617835250505050610cb5565b505050565b6040516001600160a01b038481166024830152838116604483015260648201839052610caf9186918216906323b872dd90608401610c3f565b50505050565b600080602060008451602086016000885af180610cd8576040513d6000823e3d81fd5b50506000513d91508115610cf0578060011415610cfd565b6001600160a01b0384163b155b15610caf57604051635274afe760e01b81526001600160a01b038516600482015260240161046c565b6001600160a01b038116811461062f57600080fd5b600060208284031215610d4d57600080fd5b8135610d5881610d26565b9392505050565b60008060208385031215610d7257600080fd5b823567ffffffffffffffff80821115610d8a57600080fd5b818501915085601f830112610d9e57600080fd5b813581811115610dad57600080fd5b866020828501011115610dbf57600080fd5b60209290920196919550909350505050565b600060208284031215610de357600080fd5b5051919050565b634e487b7160e01b600052601160045260246000fd5b80820180821115610e1357610e13610dea565b92915050565b81810381811115610e1357610e13610dea565b60208152816020820152818360408301376000818301604090810191909152601f909201601f1916010191905056fea2646970667358221220429ececc1136202c5942de8345d0d3c3f0ee1b9ababa653a130a99d81aa8b8fc64736f6c63430008140033",
  "linkReferences": {},
  "deployedLinkReferences": {}
}