{
  "_format": "hh-sol-artifact-1",
  "contractName": "InsightsPayment",
  "sourceName": "contracts/InsightsPayment.sol",
  "abi": [
    {
      "inputs": [
        {
          "internalType": "address",
          "name": "_cUSD",
          "type": "address"
        },
        {
          "internalType": "address",
          "name": "_insightToken",
          "type": "address"
        }
      ],
      "stateMutability": "nonpayable",
      "type": "constructor"
    },
    {
      "inputs": [
        {
          "internalType": "address",
          "name": "owner",
          "type": "address"
        }
      ],
      "name": "OwnableInvalidOwner",
      "type": "error"
    },
    {
      "inputs": [
        {
          "internalType": "address",
          "name": "account",
          "type": "address"
        }
      ],
      "name": "OwnableUnauthorizedAccount",
      "type": "error"
    },
    {
      "inputs": [],
      "name": "ReentrancyGuardReentrantCall",
      "type": "error"
    },
    {
      "inputs": [
        {
          "internalType": "address",
          "name": "token",
          "type": "address"
        }
      ],
      "name": "SafeERC20FailedOperation",
      "type": "error"
    },
    {
      "anonymous": false,
      "inputs": [
        {
          "indexed": true,
          "internalType": "address",
          "name": "user",
          "type": "address"
        },
        {
          "indexed": false,
          "internalType": "string",
          "name": "ipfsHash",
          "type": "string"
        }
      ],
      "name": "Checkin",
      "type": "event"
    },
    {
      "anonymous": false,
      "inputs": [
        {
          "indexed": true,
          "internalType": "address",
          "name": "previousOwner",
          "type": "address"
        },
        {
          "indexed": true,
          "internalType": "address",
          "name": "newOwner",
          "type": "address"
        }
      ],
      "name": "OwnershipTransferred",
      "type": "event"
    },
    {
      "anonymous": false,
      "inputs": [
        {
          "indexed": true,
          "internalType": "address",
          "name": "user",
          "type": "address"
        },
        {
          "indexed": false,
          "internalType": "uint256",
          "name": "amount",
          "type": "uint256"
        }
      ],
      "name": "RefundIssued",
      "type": "event"
    },
    {
      "anonymous": false,
      "inputs": [
        {
          "indexed": true,
          "internalType": "address",
          "name": "user",
          "type": "address"
        },
        {
          "indexed": false,
          "internalType": "uint256",
          "name": "amount",
          "type": "uint256"
        }
      ],
      "name": "RewardDistributed",
      "type": "event"
    },
    {
      "anonymous": false,
      "inputs": [
        {
          "indexed": true,
          "internalType": "address",
          "name": "user",
          "type": "address"
        },
        {
          "indexed": false,
          "internalType": "uint256",
          "name": "until",
          "type": "uint256"
        }
      ],
      "name": "Subscribed",
      "type": "event"
    },
    {
      "anonymous": false,
      "inputs": [
        {
          "indexed": true,
          "internalType": "address",
          "name": "to",
          "type": "address"
        },
        {
          "indexed": false,
          "internalType": "uint256",
          "name": "celoAmount",
          "type": "uint256"
        },
        {
          "indexed": false,
          "internalType": "uint256",
          "name": "cUSDAmount",
          "type": "uint256"
        }
      ],
      "name": "Withdrawn",
      "type": "event"
    },
    {
      "stateMutability": "payable",
      "type": "fallback"
    },
    {
      "inputs": [],
      "name": "CHECKIN_COOLDOWN",
      "outputs": [
        {
          "internalType": "uint256",
          "name": "",
          "type": "uint256"
        }
      ],
      "stateMutability": "view",
      "type": "function"
    },
    {
      "inputs": [],
      "name": "CHECKIN_FEE",
      "outputs": [
        {
          "internalType": "uint256",
          "name": "",
          "type": "uint256"
        }
      ],
      "stateMutability": "view",
      "type": "function"
    },
    {
      "inputs": [],
      "name": "MAX_CHECKINS_PER_DAY",
      "outputs": [
        {
          "internalType": "uint256",
          "name": "",
          "type": "uint256"
        }
      ],
      "stateMutability": "view",
      "type": "function"
    },
    {
      "inputs": [],
      "name": "MONTHLY_SUBSCRIPTION",
      "outputs": [
        {
          "internalType": "uint256",
          "name": "",
          "type": "uint256"
        }
      ],
      "stateMutability": "view",
      "type": "function"
    },
    {
      "inputs": [],
      "name": "REWARD_AMOUNT",
      "outputs": [
        {
          "internalType": "uint256",
          "name": "",
          "type": "uint256"
        }
      ],
      "stateMutability": "view",
      "type": "function"
    },
    {
      "inputs": [],
      "name": "REWARD_CHECKIN_COUNT",
      "outputs": [
        {
          "internalType": "uint256",
          "name": "",
          "type": "uint256"
        }
      ],
      "stateMutability": "view",
      "type": "function"
    },
    {
      "inputs": [],
      "name": "SUBSCRIPTION_DURATION",
      "outputs": [
        {
          "internalType": "uint256",
          "name": "",
          "type": "uint256"
        }
      ],
      "stateMutability": "view",
      "type": "function"
    },
    {
      "inputs": [],
      "name": "cUSD",
      "outputs": [
        {
          "internalType": "contract IERC20",
          "name": "",
          "type": "address"
        }
      ],
      "stateMutability": "view",
      "type": "function"
    },
    {
      "inputs": [
        {
          "internalType": "address",
          "name": "",
          "type": "address"
        }
      ],
      "name": "checkinCount",
      "outputs": [
        {
          "internalType": "uint256",
          "name": "",
          "type": "uint256"
        }
      ],
      "stateMutability": "view",
      "type": "function"
    },
    {
      "inputs": [
        {
          "internalType": "address",
          "name": "",
          "type": "address"
        }
      ],
      "name": "dailyCheckinCount",
      "outputs": [
        {
          "internalType": "uint256",
          "name": "",
          "type": "uint256"
        }
      ],
      "stateMutability": "view",
      "type": "function"
    },
    {
      "inputs": [
        {
          "internalType": "address",
          "name": "user",
          "type": "address"
        }
      ],
      "name": "getCheckinCount",
      "outputs": [
        {
          "internalType": "uint256",
          "name": "",
          "type": "uint256"
        }
      ],
      "stateMutability": "view",
      "type": "function"
    },
    {
      "inputs": [
        {
          "internalType": "address",
          "name": "user",
          "type": "address"
        }
      ],
      "name": "getCheckinsUntilReward",
      "outputs": [
        {
          "internalType": "uint256",
          "name": "",
          "type": "uint256"
        }
      ],
      "stateMutability": "view",
      "type": "function"
    },
    {
      "inputs": [
        {
          "internalType": "address",
          "name": "user",
          "type": "address"
        }
      ],
      "name": "getCooldownRemaining",
      "outputs": [
        {
          "internalType": "uint256",
          "name": "",
          "type": "uint256"
        }
      ],
      "stateMutability": "view",
      "type": "function"
    },
    {
      "inputs": [
        {
          "internalType": "address",
          "name": "user",
          "type": "address"
        }
      ],
      "name": "getDailyCheckinCount",
      "outputs": [
        {
          "internalType": "uint256",
          "name": "",
          "type": "uint256"
        }
      ],
      "stateMutability": "view",
      "type": "function"
    },
    {
      "inputs": [
        {
          "internalType": "address",
          "name": "user",
          "type": "address"
        }
      ],
      "name": "getRemainingCheckinsToday",
      "outputs": [
        {
          "internalType": "uint256",
          "name": "",
          "type": "uint256"
        }
      ],
      "stateMutability": "view",
      "type": "function"
    },
    {
      "inputs": [
        {
          "internalType": "address",
          "name": "user",
          "type": "address"
        }
      ],
      "name": "getSubscriptionExpiry",
      "outputs": [
        {
          "internalType": "uint256",
          "name": "",
          "type": "uint256"
        }
      ],
      "stateMutability": "view",
      "type": "function"
    },
    {
      "inputs": [],
      "name": "insightToken",
      "outputs": [
        {
          "internalType": "contract IInsightToken",
          "name": "",
          "type": "address"
        }
      ],
      "stateMutability": "view",
      "type": "function"
    },
    {
      "inputs": [
        {
          "internalType": "address",
          "name": "user",
          "type": "address"
        }
      ],
      "name": "isInCooldown",
      "outputs": [
        {
          "internalType": "bool",
          "name": "",
          "type": "bool"
        }
      ],
      "stateMutability": "view",
      "type": "function"
    },
    {
      "inputs": [
        {
          "internalType": "address",
          "name": "user",
          "type": "address"
        }
      ],
      "name": "isSubscribed",
      "outputs": [
        {
          "internalType": "bool",
          "name": "",
          "type": "bool"
        }
      ],
      "stateMutability": "view",
      "type": "function"
    },
    {
      "inputs": [
        {
          "internalType": "address",
          "name": "",
          "type": "address"
        }
      ],
      "name": "lastCheckin",
      "outputs": [
        {
          "internalType": "uint256",
          "name": "",
          "type": "uint256"
        }
      ],
      "stateMutability": "view",
      "type": "function"
    },
    {
      "inputs": [
        {
          "internalType": "address",
          "name": "",
          "type": "address"
        }
      ],
      "name": "lastCheckinDay",
      "outputs": [
        {
          "internalType": "uint256",
          "name": "",
          "type": "uint256"
        }
      ],
      "stateMutability": "view",
      "type": "function"
    },
    {
      "inputs": [],
      "name": "owner",
      "outputs": [
        {
          "internalType": "address",
          "name": "",
          "type": "address"
        }
      ],
      "stateMutability": "view",
      "type": "function"
    },
    {
      "inputs": [],
      "name": "renounceOwnership",
      "outputs": [],
      "stateMutability": "nonpayable",
      "type": "function"
    },
    {
      "inputs": [
        {
          "internalType": "string",
          "name": "ipfsHash",
          "type": "string"
        }
      ],
      "name": "submitCheckin",
      "outputs": [],
      "stateMutability": "payable",
      "type": "function"
    },
    {
      "inputs": [],
      "name": "subscribe",
      "outputs": [],
      "stateMutability": "nonpayable",
      "type": "function"
    },
    {
      "inputs": [
        {
          "internalType": "address",
          "name": "",
          "type": "address"
        }
      ],
      "name": "subscriptionExpiry",
      "outputs": [
        {
          "internalType": "uint256",
          "name": "",
          "type": "uint256"
        }
      ],
      "stateMutability": "view",
      "type": "function"
    },
    {
      "inputs": [
        {
          "internalType": "address",
          "name": "newOwner",
          "type": "address"
        }
      ],
      "name": "transferOwnership",
      "outputs": [],
      "stateMutability": "nonpayable",
      "type": "function"
    },
    {
      "inputs": [
        {
          "internalType": "address payable",
          "name": "_to",
          "type": "address"
        }
      ],
      "name": "withdrawTo",
      "outputs": [],
      "stateMutability": "nonpayable",
      "type": "function"
    },
    {
      "stateMutability": "payable",
      "type": "receive"
    }
  ],
  "bytecode": "0x60c06040523480156200001157600080fd5b506040516200151938038062001519833981016040819052620000349162000195565b33806200005c57604051631e4fbdf760e01b8152600060048201526024015b60405180910390fd5b620000678162000128565b50600180556001600160a01b038216620000b85760405162461bcd60e51b8152602060048201526011602482015270635553442061646472657373207a65726f60781b604482015260640162000053565b6001600160a01b038116620001105760405162461bcd60e51b815260206004820152601960248201527f496e7369676874546f6b656e2061646472657373207a65726f00000000000000604482015260640162000053565b6001600160a01b039182166080521660a052620001cd565b600080546001600160a01b038381166001600160a01b0319831681178455604051919092169283917f8be0079c531659141344cd1fd0a4f28419497f9722a3daafe3b4186f6b6457e09190a35050565b80516001600160a01b03811681146200019057600080fd5b919050565b60008060408385031215620001a957600080fd5b620001b48362000178565b9150620001c46020840162000178565b90509250929050565b60805160a05161130a6200020f600039600081816102070152610cea01526000818161026f015281816107ae015281816108d80152610df5015261130a6000f3fe6080604052600436106101a35760003560e01c80638f449a05116100e0578063ca78480211610084578063d8376ee211610061578063d8376ee214610521578063f2fde38b14610557578063f6847c8214610577578063fe7c21fb1461058e57005b8063ca784802146104b9578063cf849442146104ce578063d1474508146104eb57005b80639c98cc4f116100bd5780639c98cc4f1461041f578063abcb69581461044c578063b0ca6b4914610461578063b92ae87c1461048157005b80638f449a05146103be5780639211ddeb146103d35780639c7191051461040357005b80634d4b97ea11610147578063715018a611610124578063715018a61461035857806372b0d90c1461036d5780637de1ce521461038d5780638da5cb5b146103a057005b80634d4b97ea146102de5780635b46900c1461030b57806360a85ef51461032b57005b8063154f06d711610180578063154f06d7146102415780631fccf6721461025d5780632649c86b1461029157806342d18fd0146102be57005b80630267ce53146101ac578063060653cd146101d55780630f3f4970146101f557005b366101aa57005b005b3480156101b857600080fd5b506101c261465081565b6040519081526020015b60405180910390f35b3480156101e157600080fd5b506101c26101f036600461117d565b6105bb565b34801561020157600080fd5b506102297f000000000000000000000000000000000000000000000000000000000000000081565b6040516001600160a01b0390911681526020016101cc565b34801561024d57600080fd5b506101c2675fc1b9713632000081565b34801561026957600080fd5b506102297f000000000000000000000000000000000000000000000000000000000000000081565b34801561029d57600080fd5b506101c26102ac36600461117d565b60036020526000908152604090205481565b3480156102ca57600080fd5b506101c26102d936600461117d565b61060e565b3480156102ea57600080fd5b506101c26102f936600461117d565b60056020526000908152604090205481565b34801561031757600080fd5b506101c261032636600461117d565b6106a5565b34801561033757600080fd5b506101c261034636600461117d565b60026020526000908152604090205481565b34801561036457600080fd5b506101aa610715565b34801561037957600080fd5b506101aa61038836600461117d565b610729565b6101aa61039b36600461119a565b610951565b3480156103ac57600080fd5b506000546001600160a01b0316610229565b3480156103ca57600080fd5b506101aa610de0565b3480156103df57600080fd5b506103f36103ee36600461117d565b610eca565b60405190151581526020016101cc565b34801561040f57600080fd5b506101c267016345785d8a000081565b34801561042b57600080fd5b506101c261043a36600461117d565b60046020526000908152604090205481565b34801561045857600080fd5b506101c2600581565b34801561046d57600080fd5b506101c261047c36600461117d565b610f1f565b34801561048d57600080fd5b506103f361049c36600461117d565b6001600160a01b0316600090815260026020526040902054421090565b3480156104c557600080fd5b506101c2600281565b3480156104da57600080fd5b506101c26802b5e3af16b188000081565b3480156104f757600080fd5b506101c261050636600461117d565b6001600160a01b031660009081526004602052604090205490565b34801561052d57600080fd5b506101c261053c36600461117d565b6001600160a01b031660009081526002602052604090205490565b34801561056357600080fd5b506101aa61057236600461117d565b610f5e565b34801561058357600080fd5b506101c262278d0081565b34801561059a57600080fd5b506101c26105a936600461117d565b60066020526000908152604090205481565b6000806105c6610f99565b6001600160a01b03841660009081526006602052604090205490915081146105f15750600092915050565b50506001600160a01b031660009081526005602052604090205490565b600080610619610f99565b6001600160a01b038416600090815260066020526040902054909150158061065957506001600160a01b0383166000908152600660205260409020548114155b156106675750600292915050565b6001600160a01b03831660009081526005602052604090205460028110610692575060009392505050565b61069d816002611222565b949350505050565b6001600160a01b03811660009081526003602052604081205481036106cc57506000919050565b6001600160a01b0382166000908152600360205260408120546106f2906146509061123b565b90508042106107045750600092915050565b61070e4282611222565b9392505050565b61071d610fad565b6107276000610fda565b565b610731610fad565b61073961102a565b6001600160a01b0381166107945760405162461bcd60e51b815260206004820152601860248201527f496e76616c69642077697468647261772061646472657373000000000000000060448201526064015b60405180910390fd5b6040516370a0823160e01b815230600482015247906000907f00000000000000000000000000000000000000000000000000000000000000006001600160a01b0316906370a0823190602401602060405180830381865afa1580156107fd573d6000803e3d6000fd5b505050506040513d601f19601f82011682018060405250810190610821919061124e565b905081156108c5576000836001600160a01b03168360405160006040518083038185875af1925050503d8060008114610876576040519150601f19603f3d011682016040523d82523d6000602084013e61087b565b606091505b50509050806108c35760405162461bcd60e51b815260206004820152601460248201527310d15313c81dda5d1a191c985dc819985a5b195960621b604482015260640161078b565b505b80156108ff576108ff6001600160a01b037f0000000000000000000000000000000000000000000000000000000000000000168483611054565b60408051838152602081018390526001600160a01b038516917f92ccf450a286a957af52509bc1c9939d1a6a481783e142e41e2499f0bb66ebc6910160405180910390a2505061094e60018055565b50565b61095961102a565b33600090815260026020526040812054421090610974610f99565b3360009081526006602052604090205490915081146109ad57336000908152600560209081526040808320839055600690915290208190555b33600090815260056020526040902054600211610a1d5760405162461bcd60e51b815260206004820152602860248201527f4461696c79206c696d697420726561636865643a203220636865636b2d696e73604482015267207065722064617960c01b606482015260840161078b565b336000908152600360205260408120541580610a55575033600090815260036020526040902054610a51906146509061123b565b4210155b905080610ab25760405162461bcd60e51b815260206004820152602560248201527f506c656173652077616974203520686f757273206265747765656e20636865636044820152646b2d696e7360d81b606482015260840161078b565b8215610b17573415610b125760405162461bcd60e51b815260206004820152602360248201527f416c72656164792073756273637269626564202d206e6f2043454c4f206e656560448201526219195960ea1b606482015260840161078b565b610c4c565b67016345785d8a0000341015610b6f5760405162461bcd60e51b815260206004820152601e60248201527f496e73756666696369656e742043454c4f20666f7220636865636b2d696e0000604482015260640161078b565b6000610b8367016345785d8a000034611222565b90508015610c4a57604051600090339083908381818185875af1925050503d8060008114610bcd576040519150601f19603f3d011682016040523d82523d6000602084013e610bd2565b606091505b5050905080610c135760405162461bcd60e51b815260206004820152600d60248201526c1499599d5b990819985a5b1959609a1b604482015260640161078b565b60405182815233907fa171b6942063c6f2800ce40a780edce37baa2b618571b11eedd1e69e626e7d769060200160405180910390a2505b505b33600090815260036020908152604080832042905560059091528120805460019290610c7990849061123b565b9091555050336000908152600460205260408120805460019290610c9e90849061123b565b909155505033600090815260046020526040902054610cbf9060059061127d565b600003610d8d576040516340c10f1960e01b81523360048201526802b5e3af16b188000060248201527f00000000000000000000000000000000000000000000000000000000000000006001600160a01b0316906340c10f1990604401600060405180830381600087803b158015610d3657600080fd5b505af1158015610d4a573d6000803e3d6000fd5b50506040516802b5e3af16b188000081523392507fe34918ff1c7084970068b53fd71ad6d8b04e9f15d3886cbf006443e6cdc52ea6915060200160405180910390a25b336001600160a01b03167f810bee304a1c369797d3e7c7d2c11ddcf8cb3758e6743e7e04e274f026151d8f8686604051610dc8929190611291565b60405180910390a2505050610ddc60018055565b5050565b610de861102a565b610e256001600160a01b037f0000000000000000000000000000000000000000000000000000000000000000163330675fc1b971363200006110b8565b33600090815260026020526040902054428110610e5e57610e4962278d008261123b565b33600090815260026020526040902055610e7c565b610e6b62278d004261123b565b336000908152600260205260409020555b336000818152600260209081526040918290205491519182527f4b90d6788928d63c1821907a6a8b95f40d26562d8fe41b105f7489db9966dfcb910160405180910390a25061072760018055565b6001600160a01b0381166000908152600360205260408120548103610ef157506000919050565b6001600160a01b038216600090815260036020526040902054610f17906146509061123b565b421092915050565b6001600160a01b038116600090815260046020526040812054808203610f485750600592915050565b610f5360058261127d565b61070e906005611222565b610f66610fad565b6001600160a01b038116610f9057604051631e4fbdf760e01b81526000600482015260240161078b565b61094e81610fda565b6000610fa862015180426112c0565b905090565b6000546001600160a01b031633146107275760405163118cdaa760e01b815233600482015260240161078b565b600080546001600160a01b038381166001600160a01b0319831681178455604051919092169283917f8be0079c531659141344cd1fd0a4f28419497f9722a3daafe3b4186f6b6457e09190a35050565b60026001540361104d57604051633ee5aeb560e01b815260040160405180910390fd5b6002600155565b6040516001600160a01b038381166024830152604482018390526110b391859182169063a9059cbb906064015b604051602081830303815290604052915060e01b6020820180516001600160e01b0383818316178352505050506110f7565b505050565b6040516001600160a01b0384811660248301528381166044830152606482018390526110f19186918216906323b872dd90608401611081565b50505050565b600080602060008451602086016000885af18061111a576040513d6000823e3d81fd5b50506000513d9150811561113257806001141561113f565b6001600160a01b0384163b155b156110f157604051635274afe760e01b81526001600160a01b038516600482015260240161078b565b6001600160a01b038116811461094e57600080fd5b60006020828403121561118f57600080fd5b813561070e81611168565b600080602083850312156111ad57600080fd5b823567ffffffffffffffff808211156111c557600080fd5b818501915085601f8301126111d957600080fd5b8135818111156111e857600080fd5b8660208285010111156111fa57600080fd5b60209290920196919550909350505050565b634e487b7160e01b600052601160045260246000fd5b818103818111156112355761123561120c565b92915050565b808201808211156112355761123561120c565b60006020828403121561126057600080fd5b5051919050565b634e487b7160e01b600052601260045260246000fd5b60008261128c5761128c611267565b500690565b60208152816020820152818360408301376000818301604090810191909152601f909201601f19160101919050565b6000826112cf576112cf611267565b50049056fea26469706673582212209a060be45f72235442a38b49b13cf1d6d1038ca09fde1b088da6a1ef280c4e3f64736f6c63430008140033",
  "linkReferences": {},
  "deployedLinkReferences": {}
}